:100000000C94EC000C94CE1A0C94A71A0C941401C6
:100010000C9414010C9414010C9414010C9414010C
:100020000C9414010C9414010C9414010C941401FC
:100030000C9414010C9414010C9482080C94140177
:100040000C94E0250C9414010C941B1B0C94F51AD1
:100050000C9414010C9414010C9414010C941401CC
:100060000C94E2090C94140186289C289C289A2858
:100070009C2884289C289C289C2878289C289C289C
:100080008D28982896289C289C289C2894285B5387
:10009000544F505D005B53544152545D005B5354C8
:1000A0004F505D002D007C005B53544152545D0065
:1000B0005B53544F505D005B53544152545D00728A
:1000C00074632E61646A7573743A005B53544152D1
:1000D000545D4F4B5B53544F505D005B5354415242
:1000E000545D4F4B5B53544F505D005B5354415232
:1000F000545D4F4B5B53544F505D005B5354415222
:10010000545D4F4B5B53544F505D005B5354415211
:10011000545D4F4B5B53544F505D005B5354415201
:10012000545D4F4B5B53544F505D005B53544152F1
:10013000545D4F4B5B53544F505D0031363A34356C
:100140003A3035004F637420313620323031380078
:1001500056657273696F6E3A312E302E30001F1C57
:100160001F1E1F1E1F1F1E1F1E1F7C3C3E5E2B3DA1
:100170003F2F5B5D3B2C2A225C0000000000240026
:1001800027002A0000000000250028002B000000A6
:1001900000002300260029000404040404040404CD
:1001A0000202020202020303030303030102040822
:1001B00010204080010204081020010204081020D1
:1001C0000000000800020100000304070000000016
:1001D000000000004B2E772711241FBECFEFD8E080
:1001E000DEBFCDBF26E0A2E6B2E001C01D92A73A75
:1001F000B207E1F712E0A0E0B1E0E6E1FDE602C0FF
:1002000005900D92A236B107D9F710E0CBEED0E001
:1002100004C02197FE010E946231CA3ED107C9F78E
:100220000E947B270C947E360C9400006F927F9284
:100230008F929F92AF92BF92CF92DF92EF92FF92F6
:100240000F931F93CF93DF93CDB7DEB7C254D1097D
:100250000FB6F894DEBF0FBECDBF8C016DB67EB673
:100260006CE30E9451197C016EE3C8010E94511990
:100270005C01FF248FEFE81AF80AA7016CE3C801BC
:100280000E9435196C01BB24A5014F5F5F4F6EE3DF
:10029000C8010E9435194C019501A701B801CE0192
:1002A000CD960E94621A94013327A60155274F5F0D
:1002B0005F4FB801CE01C7960E94621A6BE971E0E8
:1002C000CE0101960E944D1ABE01635C7F4FCE01A4
:1002D0004F960E94331ABE016F5F7F4FCE014F963B
:1002E0000E94E221182FCE014F960E942E1ACE01B5
:1002F00001960E942E1A112361F0BE01695C7F4FA6
:10030000CE0101960E94331A0E94CE0E8BE291E03C
:100310001FC46EE971E0CE0101960E944D1ABE0124
:10032000635C7F4FCE014F960E94331ABE016F5F10
:100330007F4FCE014F960E94E221182FCE014F969B
:100340000E942E1ACE0101960E942E1A112309F442
:1003500057C0BE01695C7F4FCE018B960E94331A55
:10036000BE01655D7F4FCE0185960E94331A6CE217
:10037000CE0185960E9451198C011127980140E009
:1003800050E0BE016B5D7F4FCE014F960E94621A16
:1003900029A53AA5A8014F5F5F4FBE016B5D7F4F56
:1003A000CE0101960E94621A8BA19CA1892B41F07B
:1003B000CE014F960E942A19862F90E00E94D50EFA
:1003C0008D819E81892B31F0CE0101960E942A19E0
:1003D000862F01C086E40E94B40F8BE191E00E9459
:1003E0002023CE0101960E942E1ACE014F960E9424
:1003F0002E1ACE0185960E942E1ACE018B96ACC382
:1004000061EA71E0CE0101960E944D1ABE01635C63
:100410007F4FCE014F960E94331ABE016F5F7F4F10
:10042000CE014F960E94E221182FCE014F960E94D6
:100430002E1ACE0101960E942E1A1123C1F0BE0180
:10044000695C7F4FCE014F960E94331ABE01615EF8
:100450007F4FCE0101960E94331ACE0101960E9471
:100460002A19862F0E94B40F8BE091E0A0C064EAA5
:1004700071E0CE0101960E944D1ABE01635C7F4F70
:10048000CE014F960E94331ABE016F5F7F4FCE019F
:100490004F960E94E221182FCE014F960E942E1AED
:1004A000CE0101960E942E1A1123B1F1BE01695CA2
:1004B0007F4FCE018B960E94331ABE01655D7F4F40
:1004C000CE0185960E94331A6CE2CE0185960E9479
:1004D00051198C011127980140E050E0BE016B5D7D
:1004E0007F4FCE014F960E94621A29A53AA5A80116
:1004F0004F5F5F4FBE016B5D7F4FCE0101960E9443
:10050000621A8BA19CA1892B09F46BCF8D819E81EE
:10051000009709F024C365CF67EA71E0CE01019628
:100520000E944D1ABE01635C7F4FCE014F960E9420
:10053000331ABE016F5F7F4FCE014F960E94E221BA
:10054000182FCE014F960E942E1ACE0101960E94BE
:100550002E1A1123A9F1BE01695C7F4FCE014F967F
:100560000E94331ABE01615E7F4FCE0101960E9448
:10057000331ACE0101960E942A1998E2699F8001E0
:1005800011247801E3E2EE0EF11C025E1F4F6FEFC3
:10059000C8010E949D306FEFC80105960E949D30F2
:1005A0000F5F1F4FE016F10691F78BEE90E00E946F
:1005B0002023CE0101960E942E1ACE014F96CCC266
:1005C0006AEA71E0CE0101960E944D1ABE01635C99
:1005D0007F4FCE014F960E94331ABE016F5F7F4F4F
:1005E000CE014F960E94E221182FCE014F960E9415
:1005F0002E1ACE0101960E942E1A112309F402C16F
:10060000BE01695C7F4FCE01C1960E94331ABE01C4
:100610006F5C7F4FCE018B960E94331A6CE2CE0145
:100620008B960E9451197C016AE3CE018B960E9441
:1006300051198C01FF24970140E050E0BE01655D37
:100640007F4FCE0185960E94621ACE0185960E9448
:100650002A19862E1127A7014F5F5F4F9801BE010F
:10066000655D7F4FCE0101960E94621ABE016F5FE9
:100670007F4FCE0185960E945519CE0101960E94AA
:100680002E1ACE0185960E942A19962E2FA538A9DA
:10069000A8014F5F5F4FBE01655D7F4FCE010196A0
:1006A0000E94621ABE016F5F7F4FCE0185960E9445
:1006B0005519CE0101960E942E1ACDA0DEA0C114BC
:1006C000D104E9F109A51AA501151105C1F17601B9
:1006D0005701FFEFAF1ABF0AF7018081082E000C07
:1006E000990B0E944130892B11F07501F1CF015017
:1006F00011090C0D1D1DF8018081082E000C990BAD
:100700000E944130892B31F00E151F0518F0015061
:100710001109F1CFA8014F5F5F4F4E195F095AA72A
:1007200049A7CE14DF0420F4B701C6010E94693343
:10073000EDA1FEA189A59AA5E80FF91F108289A550
:10074000882309F44AC06DE2CE0185960E945119B2
:100750008C011127980140E050E0BE016B5D7F4F96
:10076000CE014F960E94621ACE014F960E942A191E
:10077000C62E29A53AA5A8014F5F5F4FBE016B5D4C
:100780007F4FCE0101960E94621ABE016F5F7F4FBC
:10079000CE014F960E945519CE0101960E942E1A45
:1007A000CE014F960E942A19D62EF8E28F9E700134
:1007B0001124092D10E0C8014E966C2D8E0D9F1D41
:1007C0000E949D30C80183966D2D8E0D9F1D0E9445
:1007D0009D30CE014F960E942E1A61E672E0CE0146
:1007E00085960E94171A8BED90E00E942023CE017F
:1007F00085960E942E1ACE018B960E942E1ACE014B
:10080000C196AAC16DEA71E0CE0101960E944D1A0F
:10081000BE01635C7F4FCE014F960E94331ABE012A
:100820006F5F7F4FCE014F960E94E221182FCE01BD
:100830004F960E942E1ACE0101960E942E1A112365
:1008400009F453C0BE01695C7F4FCE0185960E94BA
:10085000331ABE016B5D7F4FCE014F960E94331A53
:100860000DB71EB74BA15CA14F5F5F4F8DB79EB711
:10087000841B950B0FB6F8949EBF0FBE8DBFEDB7CE
:10088000FEB731967F014115510529F0BF01CE0118
:100890004F960E942C23C7010E941A306B017C01E5
:1008A0008FEB90E00E9405234AE0C701B6010E9449
:1008B000C32E0E940123B701A601CE0101960E941A
:1008C0006A09CE0101960E9470228BEC90E00E9492
:1008D00020230FB6F8941EBF0FBE0DBFCE014F965A
:1008E0000E942E1ACE01859637C160EB71E0CE01D1
:1008F00001960E944D1ABE01635C7F4FCE014F9658
:100900000E94331ABE016F5F7F4FCE014F960E9447
:10091000E221182FCE014F960E942E1ACE01019689
:100920000E942E1A112309F446C0BE01695C7F4F54
:10093000CE018B960E94331ABE01655D7F4FCE01BA
:1009400085960E94331A6CE2CE0185960E94511959
:100950009C01332740E050E0BE016B5D7F4FCE012C
:100960004F960E94621A8BA19CA1892B09F43DCD60
:10097000CE014F960E942A19862FBE016F5F7F4FCE
:100980000E94390B87EB90E00E9420236AE070E020
:1009900080E090E00E949A25CE0101960E94EF220D
:1009A0000E9401236AE070E080E090E00E949A25B6
:1009B00080EB90E06CC063EB71E0CE0101960E9489
:1009C0004D1ABE01635C7F4FCE014F960E94331AD1
:1009D000BE016F5F7F4FCE014F960E94E221182F1C
:1009E000CE014F960E942E1ACE0101960E942E1A19
:1009F000112309F478C0BE01695C7F4FCE018B964C
:100A00000E94331ABE01655D7F4FCE0185960E941C
:100A1000331A6CE2CE0185960E9451199C0133274E
:100A200040E050E0BE016B5D7F4FCE014F960E94CB
:100A3000621A8BA19CA1892B09F4D7CCCE014F96C9
:100A40000E942A19862FBE016F5F7F4F0E94100BF4
:100A500088EA90E00E9420236AE070E080E090E065
:100A60000E949A258E010F5F1F4FE12CF12CF80197
:100A7000D080C180FFEFDF1213C00E9401236AE023
:100A800070E080E090E00E949A258DE990E00E945D
:100A900020236AE070E080E090E00E949A25A5CCD7
:100AA000E114F10421F086EA90E00E9405236D2D07
:100AB00070E080E090E04AE00E94C32E84EA90E07B
:100AC0000E9405236C2D70E080E090E04AE00E94D7
:100AD000C32E8FEFE81AF80A0E5F1F4F95E0E91654
:100AE000F10429F6CACF66EB71E0CE0101960E94AF
:100AF0004D1ABE01635C7F4FCE014F960E94331AA0
:100B0000BE016F5F7F4FCE014F960E94E221182FEA
:100B1000CE014F960E942E1ACE0101960E942E1AE7
:100B2000112309F45EC0BE01695C7F4FCE010196BE
:100B30000E94331A85E990E00E94202364E670E069
:100B400080E090E00E949A250E94D2208EE890E0FA
:100B50000E942023CE0101960E942E1A42C0FF243B
:100B6000F394F80ECF2CD12CC6010E9468318C0171
:100B7000FF2049F00115110531F0A601B801CE01A1
:100B800001960E942C23CE014F960E942A1998E2CA
:100B9000699F600111244801E12CF12CF40161915D
:100BA0004F015601AE0CBF1C662389F0FEE1EF1623
:100BB000F10431F460E0C6014D960E949D3007C0FB
:100BC000C5010E949D308FEFE81AF80AE7CF60E078
:100BD000C5010E949D30C8010E9400328BEF90E059
:100BE000FECBCE01C7960E942E1ACE01CD960E9452
:100BF0002E1A0FB6F8947EBE0FBE6DBECE5BDF4FD1
:100C00000FB6F894DEBF0FBECDBFDF91CF911F911D
:100C10000F91FF90EF90DF90CF90BF90AF909F909B
:100C20008F907F906F90089585ED8093BC008091A8
:100C3000BC0084FDFCCF10922E05089540918202E5
:100C4000262F30E0240F311D21323105DCF42091B4
:100C50002E052430C9F4FC0180E090E0861758F49A
:100C6000309182022191DC01AE59BD4FA30FB11D1D
:100C70002C930196F3CF80918202680F60938202D9
:100C800080E0089581E0089582E008950895089530
:100C90000895E091E2028091E102E81730F4F0E07B
:100CA000ED51FD4F808190E008958FEF9FEF089503
:100CB0009091E2028091E102981750F4E92FF0E060
:100CC000ED51FD4F208130E09F5F9093E20202C022
:100CD0002FEF3FEFC90108958091E10290E020914C
:100CE000E202821B91090895CF92DF92EF92FF9268
:100CF0000F931F93CF93DF937C01CB018A01209147
:100D00002F05222389F0EB016B01C40ED51ECC15F3
:100D1000DD0569F06991D701ED91FC910190F081B9
:100D2000E02DC7010995F3CF642F0E941E06C8016C
:100D3000DF91CF911F910F91FF90EF90DF90CF90B7
:100D40000895CF93DF931F92CDB7DEB769832091CB
:100D50002F052223D1F020915205203240F021E0CE
:100D600030E0FC013383228380E090E015C0809165
:100D70003005E82FF0E0EF5CFA4F998190838F5FA8
:100D8000809330058093520505C061E0CE01019645
:100D90000E941E0681E090E00F90DF91CF910895B0
:100DA00080E090E00895009781F0DC010D90002034
:100DB000E9F7FC01CD010197E817F90731F021911E
:100DC0002613FACF81E090E0089580E090E0089546
:100DD0000F931F93CF93DF9300D0CDB7DEB78B0176
:100DE0001092A2061092A10640E050E0BE016F5F93
:100DF0007F4F0E94042F2091A1063091A20622323B
:100E0000310559F0E981FA812081211106C061156F
:100E100020E872078105910540F081E090E0F8013B
:100E20009183808380E090E004C0F80111821082F9
:100E3000CB010F900F90DF91CF911F910F910895EB
:100E4000CF92DF92EF92FF920F931F93CF93DF9396
:100E50000097C1F07B018C016B018FEFC81AD80A93
:100E6000C6010E946831EC01009761F0A60160E0C4
:100E700070E00E947233A701B801CE010E9469336D
:100E8000CE0102C080E090E0DF91CF911F910F91E1
:100E9000FF90EF90DF90CF900895009719F16115C2
:100EA000710501F1FC0101900020E9F73197E81B81
:100EB000F90BDB010D900020E9F71197AD01461BFE
:100EC000570BE417F50770F0E41BF50B8E0F9F1F0F
:100ED0000E94943331E020E0892B09F030E0832F29
:100EE000922F089580E090E008950F931F93CF9381
:100EF000DF9300D0CDB7DEB71092080101E083E5A3
:100F000095E00E946A18892BA9F083E595E00E947C
:100F10004818182F89831A8241E050E0BE016F5FA4
:100F20007F4F8DE496E00E94B6191A3041F7009386
:100F3000B002E5CF0F900F90DF91CF911F910F91ED
:100F400008958091AD02882361F09FB7F8942091B5
:100F5000AD028091A602213019F48DBB9FBF089588
:100F60008FBF08958EBD00000DB407FEFDCF8EB576
:100F700008950F931F93CF93DF93EB01FC0187A19B
:100F80008B01040F151F811120C0E0910605F0911F
:100F9000070540910505542F5095652FC017D107BF
:100FA000D9F027E030E080818523808380910000A4
:100FB000809300008081842B80832150310998F731
:100FC0008081862380832196E9CFC017D10721F045
:100FD00089910E94B207F9CFDF91CF911F910F91B4
:100FE00008952091AD02222399F04FB7F8942091F3
:100FF000AD02213059F42DB32093A6023DB32091C8
:10100000AC02209523232DBB4FBF02C04093A60204
:101010008CBD9DBD0895AF92BF92CF92DF92EF92AB
:10102000FF920F931F93CF93DF93F8942091A70221
:10103000222311F0789455C021E02093A7027894E0
:101040006C0123E4C20ED11CF6012081222309F495
:1010500046C0EC017C01F8E2EF0EF11CC7010E94D2
:1010600090178823E1F188A10E940625892BB9F108
:101070005E0121E4A20EB11C88A10E940625892BE5
:1010800071F1F50180819181009731F4F6011082B0
:10109000C7010E949D1723C040E250E0BE010E949C
:1010A00023148C01892B91F38FA1882321F080E5F3
:1010B00091E00E94F10760E08EA10E942F25A80117
:1010C0005527BE01CE010E94B90761E08EA10E94A2
:1010D0002F258FA1882381F20E94A107CDCF1092E6
:1010E000A702DF91CF911F910F91FF90EF90DF90BA
:1010F000CF90BF90AF9008958091AE029091AF02D3
:101100000C940B081F920F920FB60F9211242F937D
:101110003F934F935F936F937F938F939F93AF937F
:10112000BF93EF93FF938091AE029091AF020E9424
:101130000B08FF91EF91BF91AF919F918F917F919C
:101140006F915F914F913F912F910F900FBE0F9034
:101150001F901895CF93CFB7F8948091A502811175
:1011600027C0E2EAF1E08491E6EBF1E09491E82F08
:10117000F0E0EE0FFF1FE658FE4FA591B491EC9101
:10118000E92321F461E08AE00E942F2561E08AE0F2
:101190000E945E258CB580618CBD8CB580648CBD51
:1011A00061E08DE00E945E2561E08BE00E945E259B
:1011B0008091A5028F5F8093A502CFBFCF91089544
:1011C000CF92DF92EF92FF920F931F93CF93DF9313
:1011D000EC0181E080932F0588E680935105109201
:1011E00030051092520560E08BE396E00E94A10664
:1011F00081E00E94142287E090E00E94961F8BE31A
:1012000096E00E9458068F77982F92959F701AEF5C
:10121000082F919F000D11248BE396E00E94580641
:101220009C01332794E0359527959A95E1F7F82EA0
:10123000129FF00C11248BE396E00E9458069C014B
:10124000332744E0359527954A95E1F7E82E129F1C
:10125000E00C11248BE396E00E9458068BE396E0A5
:101260000E9458069C01332754E0359527955A95DE
:10127000E1F7D82E129FD00C11248BE396E00E9448
:1012800058069C01332764E0359527956A95E1F768
:10129000C82E129FC00C11248BE396E00E945806C2
:1012A0009C01332774E0359527957A95E1F7129FD5
:1012B000800D11248883C982DA82EB82FC820D833F
:1012C000CE01DF91CF911F910F91FF90EF90DF90B2
:1012D000CF9008958F929F92AF92BF92CF92DF925C
:1012E000EF92FF92CF93DF93EC016A017B0180E8DC
:1012F000C81A83E4D80A8DE6E80A88E3F80A8CE382
:10130000882E912CA12CB12CC701B601A501940106
:101310000E94BB306D83CA01B901A50194010E94EE
:10132000BB306C83C701B60120E13EE040E050E0F5
:101330000E94BB30CA01B90128E130E040E050E032
:101340000E94BB306B83C701B60120E831E541E064
:1013500050E00E94BB3018824881542F537081E0C6
:1013600009F080E090E0BC0163597E4F26173707F3
:1013700038F0281B390B2D5631404F5F4883ECCF96
:1013800081E089838981E82FF0E0E35AFE4FE49100
:10139000511103C0823009F4EF5FF0E02E173F07D0
:1013A00020F02E1B3F0B8F5FECCF2F5F2A83DF9146
:1013B000CF91FF90EF90DF90CF90BF90AF909F9034
:1013C0008F9008951F920F920FB60F9211242F93B2
:1013D0003F934F935F936F937F938F939F93AF93BD
:1013E000BF93EF93FF938091B900887F803609F413
:1013F0009CC068F5883209F45BC090F4803109F430
:1014000054C038F4882309F4F6C0883009F44DC07C
:10141000F6C0883109F44CC0803209F45DC0EFC0D9
:10142000803409F468C048F4803309F455C0883327
:1014300009F0E5C080932C05D8C0803509F44FC071
:10144000883509F45DC0883409F0D9C0D6C0883920
:1014500009F4C7C0A8F4883709F467C038F488369F
:1014600009F463C0803709F460C0C9C0883809F442
:10147000B8C0803909F45FC0803809F0C0C05BC0D3
:10148000803B09F486C038F4803A09F466C0883A93
:1014900009F47FC0B4C0803C09F4A7C0883C09F4BB
:1014A000A4C0883B09F48AC0AAC08091090510C075
:1014B00090912B0580912A05981770F5E0912B05E6
:1014C00081E08E0F80932B05F0E0E65FFA4F80817C
:1014D0008093BB0085EC86C080932C058EC0E09184
:1014E0002B0581E08E0F80932B058091BB00F0E0EF
:1014F000E65FFA4F808390912B0580912A056EC09C
:10150000E0912B0581E08E0F80932B058091BB002D
:10151000F0E0E65FFA4F808380912D0581116DC068
:1015200081E08093080584EA61C083E080932E0502
:101530001092A402CFCF8091A402803208F051C053
:10154000E091A40281E08E0F8093A4028091BB0001
:10155000F0E0EC57FD4F8083BDCF85EC8093BC005D
:1015600010922E058091A402803230F4E091A40202
:10157000F0E0EC57FD4F10826091A40270E0E09122
:10158000A802F091A90284E892E009951092A402C1
:1015900036C084E080932E0510928302109282025E
:1015A000E091AA02F091AB0209958091820281112B
:1015B00005C081E08093820210926202E091830272
:1015C00081E08E0F80938302F0E0EE59FD4F808121
:1015D0008093BB009091830280918202981708F457
:1015E00079CF85E88093BC000AC085EC8093BC006D
:1015F00010922E0504C010922C050E941406FF9133
:10160000EF91BF91AF919F918F917F916F915F917A
:101610004F913F912F910F900FBE0F901F901895F3
:10162000EF92FF920F931F93CF93DF9328E2829F55
:10163000C00111247C01E3E2EE0EF11C8B01EC01F0
:101640006E96CE010E949530F8018083CE010596FA
:101650000E949530F801818321960E5F1F4FEC1692
:10166000FD0679F7DF91CF911F910F91FF90EF90D9
:101670000895CF92DF92EF92FF920F931F93CF9333
:10168000DF93EB0128E2829FC00111246B01EDE1A1
:10169000CE0ED11C8B017C01E61AF70AC701800F20
:1016A000911F0E949530F80181938F01882319F0D2
:1016B000EC15FD0599F71D8EDF91CF911F910F91CC
:1016C000FF90EF90DF90CF900895CF92DF92EF924E
:1016D000FF920F931F93CF93DF930097F1F07B015D
:1016E000EC016C0100E010E00E151F0559F0F60149
:1016F000819191916F01009711F00E9400320F5F6C
:101700001F4FF2CFCE01DF91CF911F910F91FF902C
:10171000EF90DF90CF900C940032DF91CF911F912A
:101720000F91FF90EF90DF90CF9008952F923F920E
:101730004F925F926F927F928F929F92AF92BF92E1
:10174000CF92DF92EF92FF920F931F93CF93DF938D
:1017500000D000D0CDB7DEB7262E5A83498300973C
:1017600009F4C5C04C01FC01E12CF12C219122238C
:1017700049F02FEFE216F10409F4B9C03FEFE31A84
:10178000F30AF4CF3C016E0C7F1C9C838B83C12C2D
:10179000D12C00E010E08B819C8186159705C9F063
:1017A000FC018191FC83EB83821108C0C114D10438
:1017B00091F30F5F1F4FC12CD12CEDCF082E000CE1
:1017C000990B0E944130892B31F7FFEFCF1ADF0AC6
:1017D000E2CFCD2811F00F5F1F4F0115110509F45D
:1017E00083C02FEFE21AF20AC7010E9468315C0140
:1017F000009709F47EC0A70160E070E00E94723398
:10180000C801880F991F9C838B830E9468316C01EB
:10181000009709F45EC04B815C8160E070E00E943B
:1018200072331C821B82412C512C68147904B9F14B
:10183000F40131904F01231021C041145104A9F348
:10184000B201C5010E942007009709F442C04B80F5
:101850005C80FFEF4F1A5F0A2B813C81220F331F00
:101860002C0D3D1DF90191838083A70160E070E09C
:10187000C5010E9472335C824B82D5CF832D032C2D
:10188000000C990B0E944130892B79F6F501E40D8B
:10189000F51D308292012F5F3F4F2901C6CF4114C1
:1018A000510471F0B201C5010E942007009789F030
:1018B000EB81FC81EE0FFF1FEC0DFD1D91838083FA
:1018C000C5010E940032E981FA8111830083C601BB
:1018D00013C0C5010E940032B801C6010E94650B09
:1018E000E981FA811182108280E090E005C000E079
:1018F00010E0C12CD12CF0CF0F900F900F900F90D3
:10190000DF91CF911F910F91FF90EF90DF90CF90DB
:10191000BF90AF909F908F907F906F905F904F900F
:101920003F902F9008958F929F92AF92BF92CF9247
:10193000DF92EF92FF920F931F93CF93DF9300D02C
:1019400000D0CDB7DEB77C015B014A0169011C8282
:101950001B8284E090E00E9468318C01009709F4BA
:1019600097C0FC011182108213821282F70101904C
:101970000020E9F7CF0102978E159F0551F4F7017A
:1019800080818A3231F4F801B182A082C4010197CA
:101990001BC06DE2C7010E94D306892BD1F41A82C5
:1019A0001982BE016F5F7F4FC7010E94E80629813F
:1019B0003A81232B31F08CEB91E0F6019183808307
:1019C00067C0F8019183808393838283E12CF12C9B
:1019D00038C0AE014D5F5F4F6DE2C7010E94960BAC
:1019E0007C018B819C81029719F08FEB91E013C0F1
:1019F0001A821982BE016F5F7F4FF701808191814A
:101A00000E94E806F8019183808389819A81892B5D
:101A100031F082EC91E0F601918380833BC0BE01FE
:101A20006F5F7F4FF701828193810E94E806F80182
:101A30009383828389819A81892B19F085EC91E0C7
:101A4000EACFF801208131812815390528F48281F7
:101A500093818815990518F088EC91E0DCCF2A1560
:101A60003B0518F08A159B0518F48BEC91E0D3CF59
:101A70008217930718F48EEC91E0CDCF6B817C81B7
:101A8000C7010E94650BF60111821082C8010FC0C8
:101A9000E12CF12C6B817C81C7010E94650B011543
:101AA000110519F0C8010E94003280E090E00F900B
:101AB0000F900F900F90DF91CF911F910F91FF909A
:101AC000EF90DF90CF90BF90AF909F908F90089550
:101AD0009B0177FF02C0295F3F4F43E03595279573
:101AE0004A95E1F7FC01E20FF11D208130E0CB01C6
:101AF00068E070E00E944E31A90102C055954795FB
:101B00008A95E2F7CA0181700895FC01CB019B011F
:101B100077FF02C0295F3F4F43E0359527954A95EF
:101B2000E1F7E20FF11D68E070E00E944E3121E024
:101B300030E001C0220F8A95EAF78081282B2083AC
:101B400008952F923F924F925F926F927F928F9261
:101B50009F92AF92BF92CF92DF92EF92FF920F933C
:101B60001F93CF93DF93CDB7DEB72E970FB6F894C0
:101B7000DEBF0FBECDBF7C876B871A0139011E8285
:101B80001D82AE014B5F5F4F6CE20E94960B4C01D1
:101B9000009731F481ED91E0F80191838083B9C021
:101BA0009A878987412C512CC30101979E878D8785
:101BB0008D819E814816590608F0ABC0E985FA85EB
:101BC000E190F190FA87E9876FE2C7010E94D3069E
:101BD000892B39F59801A301B101C7010E94930C2B
:101BE0007C01F80180819181892B41F0E114F1049D
:101BF00009F48FC0C7010E9400328BC0F701C0807A
:101C0000D180F701828193818C159D0508F47AC0FB
:101C1000B6018B859C850E94850DFFEFCF1ADF0AE8
:101C2000F0CF1C821B82AE014D5F5F4F6FE2C70198
:101C30000E94960B6C016B817C816230710531F0E2
:101C400084ED91E0F8019183808316C09801A3018F
:101C5000B101FC01808191810E94930C7C01F8010B
:101C600080819181892B61F0E114F10419F0C701A1
:101C70000E9400326B817C81C6010E94650B49C0C5
:101C80006DE2F601808191810E94D306892B29F4AF
:101C90008D859E85F701938382831A821982BE0106
:101CA0006F5F7F4FF601828193810E94E8069887DB
:101CB0008F8389819A81892B19F087ED91E006C085
:101CC0008F819885892B31F48BED91E0F801918318
:101CD0008083CDCFF701A080B180F701828193810D
:101CE0008A159B0550F0B5018B859C850E94850D5A
:101CF0008F819885A80EB91EF0CF6B817C81C601BB
:101D00000E94650BC7010E9400329FEF491A590AD1
:101D10004FCF6D817E81C4010E94650B2E960FB658
:101D2000F894DEBF0FBECDBFDF91CF911F910F9111
:101D3000FF90EF90DF90CF90BF90AF909F908F90EB
:101D40007F906F905F904F903F902F900895CF932A
:101D5000DF93EC016FED71E00E944D07892BC1F418
:101D600064EE71E0CE010E944D07892B89F469EE83
:101D700071E0CE010E944D07892B51F46EEE71E0A7
:101D8000CE010E944D0721E0892B19F420E001C00B
:101D900021E0822F90E0DF91CF9108950E945B2394
:101DA000811102C00C944E2308950F931F93CF937B
:101DB000DF93CDB7DEB7E6970FB6F894DEBF0FBE60
:101DC000CDBF082F0E945B23811102C00E944E23C9
:101DD0000E945B23811102C00E944E230E945B235C
:101DE000811102C00E944E2340E063EF71E0CE01FA
:101DF00001960E94DF1FCE0101960E94682310E029
:101E0000BE016F5F7F4FCE014C960E941924CE0118
:101E10004C960E949017811105C0CE0101960E9438
:101E2000682313C0CE0188960E94A70E892B41F02B
:101E3000011305C0CE014C960E949D1706C01F5F7E
:101E4000CE014C960E949D17DBCFCE0101960E94D9
:101E50009D1788A5882309F47CC040E058E460E021
:101E600083E596E00E94AA2149E25EE167E083E50E
:101E700096E00E94AA2140E050E066E083E596E00B
:101E80000E94AA2141E0BE01685D7F4FCE0101960C
:101E90000E94DF1F8B819C8190937E0680937D063C
:101EA0008D819E81AF81B88580937F069093800657
:101EB000A0938106B093820689859A85AB85BC85FF
:101EC0008093830690938406A0938506B09386063C
:101ED000DE011D96E7E8F6E08D91819386E0E43916
:101EE000F807D1F78A8D9B8D909395068093940681
:101EF0008BE796E00E949017882319F1F89440E050
:101F000050E064E083E596E00E94AA2140E050E0C2
:101F100064E083E596E00E94AA2181E08093960622
:101F2000809173060E940625892BD1F38091960635
:101F3000882341F0809173060E940625892B21F4A5
:101F400001C0FFCF789405C083E596E00E940B089E
:101F5000EDCFE6960FB6F894DEBF0FBECDBFDF9192
:101F6000CF911F910F910895811104C0F8944FEF04
:101F70005FEF08C044E6481B50E0942F8827F89490
:101F8000482B592B6BE083E596E00E94AA217894B8
:101F90000895DC015996ED91FC915A973097B9F06C
:101FA00083899489A589B689428553856485758519
:101FB000841B950BA60BB70B811520E89207A10592
:101FC000B10538F08FEF9FE7A0E0B0E0089580E022
:101FD00090E00895CF93DF931F92CDB7DEB769836A
:101FE000DC01ED91FC910280F381E02D41E050E0B5
:101FF000BE016F5F7F4F09950F90DF91CF910895DC
:10200000CF93DF93EC018D81882379F18C8187FF59
:1020100028C06E857F858889998941E00E94881B48
:10202000882319F1EA8980E2E89FF0011124ED5F2D
:10203000FC4F3097D1F08D81823040F48B899C89A0
:10204000AD89BE89848F958FA68FB78F8F89988D24
:10205000A98DBA8D938F828FB58BA48B8C818F774E
:102060008C83DF91CF910C944D1B80E0DF91CF9159
:102070000895FC01818D928D009711F00C94001051
:1020800008958F929F92AF92BF92CF92DF92EF927C
:10209000FF920F931F93CF93DF93EC018D818111FA
:1020A00002C080E078C00B891C892D893E89041705
:1020B000150726073707A8F36A017B01823029F448
:1020C000CA86DB86EC86FD860DC0C114D104E1040E
:1020D000F10451F41E821F82188619861A861B8607
:1020E0001C861D8681E057C08A849B84AC84BD8495
:1020F000EB8DFC8D258530E0275F3F4FB501A401B6
:102100004150510961097109022E04C07695679505
:10211000579547950A94D2F7D701C6010197A109AF
:10212000B10904C0B695A795979587952A95D2F7DA
:1021300084179507A607B70720F089288A288B28D7
:1021400071F44F89588D698D7A8D4E835F836887CE
:1021500079874C015D018E010A5F1F4F16C0841BF9
:10216000950BA60BB70BF5CF4E815F8168857985FE
:1021700098018B8D9C8D0E94721C91E0891A9108A8
:10218000A108B108882309F48CCF81149104A1041B
:10219000B10451F795CFDF91CF911F910F91FF902F
:1021A000EF90DF90CF90BF90AF909F908F90089569
:1021B0008F929F92AF92BF92CF92DF92EF92FF9257
:1021C0000F931F93CF93DF9300D000D0CDB7DEB72E
:1021D0007C0180E2689FF0011124ED5FFC4F938544
:1021E000917121F0842F827409F08FC0142FD701D0
:1021F00052966C9352974091090150910A01609157
:102200000B0170910C011E964D935D936D937C9321
:1022100051974489558960E070E0BA0155274427F9
:10222000828D938DA0E0B0E0482B592B6A2B7B2B3D
:10223000D70157964D935D936D937C935A97838501
:10224000887159F4848D958DA68DB78DF701838B98
:10225000948BA58BB68B81E012C0803109F055C0FC
:1022600097012D5E3F4FD7015B968D919C915C97B6
:102270000E94B023882309F448C084E0F7018583D5
:10228000812F8F70D70114968C931497F7011682C3
:102290001782108611861A961D921D921D921C920D
:1022A0001D9716FF34C015968C91813071F511FF82
:1022B0002CC0F7014389548965897689452B462BC3
:1022C000472B09F461C040E050E0BA01C7010E9409
:1022D00041108823D1F0F7018788908CA18CB28CB3
:1022E000C38CD48C82E090E0A0E0B0E0F601808363
:1022F0009183A283B3839E012F5F3F4FB501A40159
:10230000C6010E94721C811104C080E03DC081E0C2
:102310003BC000E010E09801B501A401C6010E9495
:10232000D11B882391F389809A80AB80BC80D60131
:1023300057968C91803129F088EF9FEFAFEFBFE087
:1023400004C088EF9FEFA0E0B0E088169906AA06C7
:10235000BB0688F2D70157961D921D921D921C92C2
:102360005A97F701138A148A158A168A848180681D
:102370008483C7010E940010882339F240E050E0B6
:10238000BA01C7010E9441100F900F900F900F905B
:10239000DF91CF911F910F91FF90EF90DF90CF9041
:1023A000BF90AF909F908F900895CF93DF93EC01F3
:1023B0000E940010882311F01D8281E0DF91CF91EF
:1023C00008953F924F925F926F927F928F929F9269
:1023D000AF92BF92CF92DF92EF92FF920F931F9333
:1023E000CF93DF93CDB7DEB72C970FB6F894DEBF4F
:1023F0000FBECDBF5C01DC015B968D909C905C971D
:102400001696CD90DD90ED90FC901997C114D104F3
:10241000E104F10439F0BFEFCB1ADB0AEB0AFB0A47
:10242000312C07C0F401C080D180E280F3803324D6
:102430003394F40181859285A385B4859C01AD0117
:102440002F5F3F4F4F4F5F4F29873A874B875C87FE
:10245000260137011D821E821F821886F4018185A4
:102460009285A385B4852D813E814F81588528179B
:1024700039074A075B0708F063C089859A85AB85F1
:10248000BC858C159D05AE05BF0550F482E0C82EB5
:10249000D12CE12CF12C92E0492E512C612C712C85
:1024A0009E012F5F3F4FB701A601C4010E94721C1D
:1024B000882309F445C089819A81AB81BC81892B2D
:1024C0008A2B8B2B41F0260137019FEF491A590ABD
:1024D000690A790A05C0C414D504E604F70491F02A
:1024E0002D813E814F8158852F5F3F4F4F4F5F4F6A
:1024F0002D833E834F8358873FEFC31AD30AE30AE5
:10250000F30AACCF0FEF1FEF2FEF3FE0B301A201B3
:10251000C4010E94D11B882399F0D50116964D91D4
:102520005D916D917C91199741155105610571057A
:1025300049F093018201C4010E94D11B811102C0A4
:1025400080E02AC0D50116964D925D926D927C92E4
:102550001997332051F0D301C2010196A11DB11D7D
:10256000F40180839183A283B383F5018789908DE1
:10257000A18DB28D892B8A2B8B2B69F4D5015796AF
:102580004D925D926D927C925A9714968C9114970D
:10259000806814968C9381E02C960FB6F894DEBF79
:1025A0000FBECDBFDF91CF911F910F91FF90EF90A4
:1025B000DF90CF90BF90AF909F908F907F906F9063
:1025C0005F904F903F900895CF93DF93EC018091FF
:1025D000DB02811109C081E08093DB028091F0056C
:1025E0009091F1050E94F10760E08C81DF91CF911D
:1025F0000C942F2561E0FC0184810E942F2580919D
:10260000DB02882321F01092DB020C94A1070895CD
:102610008FEF0C94B2070F931F93CF93DF93EB01CF
:102620000E94D4258B010E9408138F3F49F00E941D
:10263000D425601B710B6C177D07A8F380E001C0E7
:1026400081E0DF91CF911F910F910895CF93DF9398
:10265000EC018E81882389F08F8198859C012F5F02
:102660003F4F38872F838230924018F40E9408131E
:10267000F3CFCE010E94FA121E82DF91CF9108950E
:102680008F929F92AF92BF92FF920F931F93CF931F
:10269000DF93EC01F62E49015A010E942613CE0168
:1026A0000E94E4126CE271E0CE010E940B138F2DA8
:1026B00080640E94B20708E110E0D501C401002E39
:1026C00004C0B695A795979587950A94D2F70E946E
:1026D000B20708501109083F8FEF180771F7FF2064
:1026E00029F088E0F81204C087E803C085E901C03A
:1026F0008FEF0E94B20710E00E9408138A8787FFBD
:1027000004C01F3F11F01F5FF7CFDF91CF911F91E2
:102710000F91FF90BF90AF909F908F900895AF92D0
:10272000BF92CF92DF92EF92FF920F931F93CF93BE
:10273000DF93EC016901C801820F931F8130924041
:1027400008F070C08E81882371F088819981AA81F8
:10275000BB8184179507A607B70729F48F81988551
:10276000C816D906B0F5488359836A837B838B8565
:10277000833039F089E0440F551F661F771F8A9513
:10278000D1F79A01AB0161E1CE010E944013882389
:1027900019F083E08D8346C00E94D4255B010E941E
:1027A00008138A878F3F49F40E94D4256A197B0950
:1027B0006D327140A0F38FE003C08E3F31F08DE0A9
:1027C0008D83CE010E94FA122DC018861F8281E0EF
:1027D0008E838F8198858C159D0540F40E94081387
:1027E0008F819885019698878F83F3CF6701E00EDC
:1027F000F11EEC14FD0431F00E940813F6018193E0
:102800006F01F7CF8F819885080F191F18870F83E5
:102810008985882319F00115124048F0CE010E94E5
:10282000261305C0CE010E94FA1280E001C081E0AB
:10283000DF91CF911F910F91FF90EF90DF90CF909C
:10284000BF90AF9008952F923F924F925F926F92F8
:102850007F928F929F92AF92BF92CF92DF92EF9230
:10286000FF920F931F93CF93DF93EC016B014A010B
:102870008D81811103C08FEF9FEFD7C08C8180FFC6
:10288000FACF4B885C886D887E884A855B856C852D
:102890007D85C401A0E0B0E093018201041B150B0B
:1028A000260B370B081719072A073B0718F44201B4
:1028B000841A950A54011E0126E0220E311CA1142F
:1028C000B10409F47EC04A855B856C857D852A014B
:1028D00081E05822ED818B8D9C8D8A019B01F9E06E
:1028E0003695279517950795FA95D1F7E23061F45B
:1028F000FC01828D938DA48DB58DBC01CD01600F3F
:10290000711F821F931F3FC0FC0174807A94702254
:1029100041145104C9F4711017C0452B462B472BA5
:1029200049F48F89988DA98DBA8D8E839F83A8874E
:10293000B9870AC04E815F816885798591010E94BF
:10294000721C882309F497CFEB8DFC8D8E819F81BB
:10295000A885B9850297A109B109058404C0880F2B
:10296000991FAA1FBB1F0A94D2F746855785608915
:102970007189840F951FA61FB71FBC01CD01670D7C
:10298000711D811D911D20E032E0241935093501AA
:102990002A153B0508F439012C8126FD04C0611479
:1029A000F2E07F0681F40091090110910A01209163
:1029B0000B0130910C016017710782079307B1F486
:1029C00002C0C40132C040E00E94881B882309F481
:1029D00052CFF201ED5FFC4FD601CF01860D971D5E
:1029E0008E179F0789F021912D93FACF76018301ED
:1029F0009201AB01BC0180910305909104050E94F6
:102A00008F13882309F437CFC60CD71C8A859B8582
:102A1000AC85BD85860D971DA11DB11D8A879B873D
:102A2000AC87BD87A618B7084ACFDF91CF911F9119
:102A30000F91FF90EF90DF90CF90BF90AF909F905D
:102A40008F907F906F905F904F903F902F90089560
:102A5000EF92FF920F931F93CF93DF93EC017901D5
:102A6000411551056105710511F482E13CC08B856A
:102A7000833039F089E0440F551F661F771F8A9510
:102A8000D1F79A01AB0168E1CE010E94401388237F
:102A900011F084E028C08EEF0E94B20787018EEF0C
:102AA000F81AF80181918F010E94B207E016F10631
:102AB000C1F78FEF0E94B2078FEF0E94B2070E940A
:102AC00008138A878F71853031F081E18D83CE01C3
:102AD0000E94FA1209C068E572E0CE010E940B1351
:102AE000811107C085E18D83CE010E94FA1280E03A
:102AF00014C020E030E0A9016DE0CE010E94401337
:102B0000811109C00E940813811105C0CE010E94E5
:102B1000FA1281E002C084E1E6CFDF91CF911F91EC
:102B20000F91FF90EF9008952F923F924F925F92F6
:102B30006F927F928F929F92AF92BF92CF92DF92CD
:102B4000EF92FF920F931F93CF93DF9300D000D0AB
:102B5000CDB7DEB78C015B011A01DC0115968C91B3
:102B600015978130C9F414968C9181FF15C082FFAE
:102B70001DC0F801438954896589768982859385CA
:102B8000A485B58584179507A607B70779F0C8010E
:102B90000E94411081110AC081E090E0D801139693
:102BA0009C938E93129780E090E036C1610183C0C0
:102BB0005B968D919C915C97FC0174802FEF270DA3
:102BC0002A013B0139E076946794579447943A95EB
:102BD000D1F7722E74207A01F1E0FF22772009F4F8
:102BE00076C080E092E08E199F0946018C159D0504
:102BF00008F44C01D8015B962D913C915C97169698
:102C00008D919D910D90BC91A02D0297A109B109C4
:102C1000F901058404C0880F991FAA1FBB1F0A94DD
:102C2000D2F74685578560897189840F951FA61F45
:102C3000B71F9C01AD01270D311D411D511D2901FB
:102C40003A01811432E0930609F088C080910901AD
:102C500090910A01A0910B01B0910C014816590600
:102C60006A067B0659F48FEF9FEFDC018093090120
:102C700090930A01A0930B01B0930C019501B3014D
:102C8000A20180910305909104050E9428158823D4
:102C900009F482CF9EEFB91AC818D908F8018285C5
:102CA0009385A485B585880D991DA11DB11D8287C9
:102CB0009387A487B587D8011A964D915D916D9140
:102CC0007C911D97C114D10409F072CF87C0E11423
:102CD000F10409F086CF16964D915D916D917C912E
:102CE0001997411551056105710559F457968D9154
:102CF0009D910D90BC91A02D0097A105B10541F5C6
:102D000021C09E012F5F3F4F0E94721C882309F44F
:102D10004BCF89819A81AB81BC81F801238D348DA1
:102D2000F9012789203129F048EF5FEF6FEF7FE04D
:102D300004C048EF5FEF60E070E084179507A607D6
:102D4000B70730F0C8010E94E11181114ACF24CFAA
:102D5000F80186839783A087B18743CFE114F104FC
:102D600029F5D8011A964D915D916D917C911D9731
:102D700053968D919D910D90BC91A02D48175907A8
:102D80006A077B0798F00E944D1B882309F404CF43
:102D90004092090150920A0160920B0170920C015D
:102DA0008091DC0281608093DC0208C041E0C301B5
:102DB000B2010E94881B882309F4EECED501F701E9
:102DC000ED5FFC4F9F01280D391D2E173F0719F0AD
:102DD0008D918193FACFA80CB91C5ECFF80183893D
:102DE0009489A589B68984179507A607B70738F48B
:102DF000438B548B658B768B848180688483F80148
:102E0000848183FD02C0C10107C0C8010E94001077
:102E1000882309F4C1CEF7CF0F900F900F900F9039
:102E2000DF91CF911F910F91FF90EF90DF90CF90A6
:102E3000BF90AF909F908F907F906F905F904F90DA
:102E40003F902F900895CF93DF93EC01898D9A8D59
:102E5000009739F481E090E09B838A8380E090E0E2
:102E60000BC0FC01138212820E949415E98DFA8D29
:102E700022813381232B71F7DF91CF910895FC01DB
:102E8000DB0112968D919C9113979383828383E645
:102E900091E09183808314968C9114978483159686
:102EA0008C911597858316964D915D916D917C91CE
:102EB000199746835783608771871A964D915D9164
:102EC0006D917C911D9742875387648775871E9605
:102ED0004D915D916D917C91519746875787608B9D
:102EE000718B52968C915297828B53964D915D9136
:102EF0006D917C915697438B548B658B768B57964F
:102F00004D915D916D917C915A97478B508F618F58
:102F1000728F5B968D919C915C97948F838F0895AF
:102F2000DC015996ED91FC915A97309721F081E0A0
:102F30009581911101C080E00895CF93DF93EC015A
:102F4000898D9A8D009741F00E94D511898D9A8DB7
:102F50000E9400321A8E198EDF91CF910895FC01E4
:102F60001382128288EE93E0A0E0B0E08483958320
:102F7000A683B7838FE391E091838083128E118EB5
:102F800014860895CF93DF931F92CDB7DEB741E04B
:102F900050E0BE016F5F7F4F0E942314019719F428
:102FA000898190E002C08FEF9FEF0F90DF91CF916A
:102FB0000895FC01818D928D009711F00C94C21739
:102FC0008FEF9FEF08950F931F93CF93DF93FC0133
:102FD000818D928D0097B9F0EF010E94C2178C018C
:102FE0000F3F8FEF180791F0898D9A8DFC01428574
:102FF00053856485758541505109610971090E94A5
:103000004110C80105C080E090E002C08FEF9FEF43
:10301000DF91CF911F910F91089508950895CF9258
:10302000DF92EF92FF920F931F93CF93DF936C0188
:103030007A018B01C0E0D0E0CE15DF0581F0D80128
:103040006D918D01D601ED91FC910190F081E02D03
:10305000C6010995892B11F02196EECF7E01C7019B
:10306000DF91CF911F910F91FF90EF90DF90CF9064
:103070000895FC01538D448D252F30E0842F90E07E
:10308000821B930B541710F0CF9608950197089563
:10309000FC01918D828D981761F0828DDF01A80F60
:1030A000B11D5D968C91928D9F5F9F73928F90E082
:1030B00008958FEF9FEF0895FC01918D828D9817F1
:1030C00031F0828DE80FF11D858D90E008958FEF2E
:1030D0009FEF0895FC01918D228D892F90E0805CF7
:1030E0009F4F821B91098F739927089583E595E07F
:1030F0000E946A1821E0892B09F420E0822F0895AC
:10310000FC01848DDF01A80FB11DA35ABF4F2C9184
:10311000848D90E001968F739927848FA689B78953
:103120002C93A089B1898C91837080648C93938D4A
:10313000848D981306C00288F389E02D80818F7DED
:1031400080830895EF92FF920F931F93CF93DF93A5
:10315000EC0181E0888F9B8D8C8D981305C0E889E8
:10316000F989808185FD26C0F62E0B8D10E00F5F5A
:103170001F4F0F731127E02E8C8DE8120CC00FB675
:1031800007FCFACFE889F989808185FFF5CFCE0168
:103190000E948018F1CF8B8DFE01E80FF11DE35ADC
:1031A000FF4FF0829FB7F8940B8FEA89FB898081EB
:1031B00080620AC09FB7F894EE89FF896083E8892E
:1031C000F98980818370806480839FBF81E090E073
:1031D000DF91CF911F910F91FF90EF900895CF93C2
:1031E000DF93EC01888D8823C9F0EA89FB8980810F
:1031F00085FD05C0A889B9898C9186FD0FC00FB6E1
:1032000007FCF5CF808185FFF2CFA889B9898C9121
:1032100085FFEDCFCE010E948018E7CFDF91CF91DF
:1032200008950E94761881110C94750708950E94E4
:103230004F33CF93DF931F92CDB7DEB7698341E061
:1032400050E0BE016F5F7F4F0E9494150F90DF9199
:10325000CF910895FC0180819181009711F00C9429
:103260001A3060E070E0CB010895CF93DF93FC014A
:10327000248135814217530778F4C081D181062E0D
:10328000000C770BCE01840F951F0E9479330097B5
:1032900019F08C1B9D0B02C08FEF9FEFDF91CF9138
:1032A000089540E050E00C9435190F931F93CF938D
:1032B000DF938C01EB01FC0180819181009739F053
:1032C0006881798161157105A1F40E9400328881BD
:1032D0009981F801918380838A819B819383828382
:1032E0008C819D8195838483198218821B821A8226
:1032F0000FC0F801428153812C813D814217530751
:1033000020F30E948D338C819D81F8019583848305
:103310001D821C82DF91CF911F910F9108950F9311
:103320001F93CF93DF93EC0188819981009729F057
:103330002A813B812617370788F48B016F5F7F4F07
:103340000E948932009761F0998388831B830A83E6
:103350002C813D81232B11F4FC01108281E001C0FE
:1033600080E0DF91CF911F910F910895EF92FF922E
:103370000F931F93CF93DF936115710511F480E0D4
:103380001CC041155105C1F07B01EC018C819D8170
:103390008A01080F191FB801CE010E948F198823D6
:1033A00071F3288139818C819D81B701820F931F30
:1033B0000E948D331D830C8381E0DF91CF911F919B
:1033C0000F91FF90EF900895CF93DF93EC018881E8
:1033D0009981009711F00E940032198218821D8293
:1033E0001C821B821A82DF91CF910895EF92FF9287
:1033F0000F931F93CF93DF93EC017B018A01BA01F6
:103400000E948F19811104C0CE010E94E41907C0E7
:103410001D830C83B701888199810E948D33CE0171
:10342000DF91CF911F910F91FF90EF900895CF936F
:10343000DF93EC016115710559F0FB01019000204B
:10344000E9F73197AF01461B570B0E94F61902C0EE
:103450000E94E419CE01DF91CF910895FC01808193
:1034600091810C940032FB01DC0111961C921E929A
:1034700013961C921E92129715961C921E921497E8
:103480008617970749F0608171816115710521F0F8
:10349000448155810C94F6190895FC011182108223
:1034A00013821282158214826115710551F0FB019D
:1034B00001900020E9F73197AF01461B570B0C94A0
:1034C000F6190895BF92CF92DF92EF92FF920F9379
:1034D0001F93CF93DF937C016B018A01E9012417CD
:1034E000350720F4812F8901C42FD82F61E672E0BF
:1034F000C7010E944D1AD60114968D919C91159783
:1035000008171907C8F48C179D0708F4EC01D601B9
:10351000ED91FC911197EC0FFD1FB08010826D9121
:103520007C91600F711FC7010E94171AD601ED919F
:10353000FC91EC0FFD1FB082C701DF91CF911F916D
:103540000F91FF90EF90DF90CF90BF9008951F9262
:103550000F920FB60F9211242F933F934F935F93C7
:103560006F937F938F939F93AF93BF93EF93FF934B
:10357000E0910201F09103010995FF91EF91BF9154
:10358000AF919F918F917F916F915F914F913F91FB
:103590002F910F900FBE0F901F9018951F920F92B2
:1035A0000FB60F9211242F933F934F935F936F9316
:1035B0007F938F939F93AF93BF93EF93FF93E0918C
:1035C0000001F09101010995FF91EF91BF91AF9139
:1035D0009F918F917F916F915F914F913F912F912B
:1035E0000F900FBE0F901F9018951F920F920FB65D
:1035F0000F9211242F933F934F935F936F937F9379
:103600008F939F93AF93BF93EF93FF9383E595E0E1
:103610000E948018FF91EF91BF91AF919F918F9180
:103620007F916F915F914F913F912F910F900FBEBE
:103630000F901F9018951F920F920FB60F921124A2
:103640002F938F939F93EF93FF93E0916305F091F6
:1036500064058081E0916905F0916A0582FD12C0E0
:10366000908180916C058F5F8F7320916D0582171B
:1036700051F0E0916C05F0E0ED5AFA4F958F809390
:103680006C0501C08081FF91EF919F918F912F91E7
:103690000F900FBE0F901F9018958091DC02882329
:1036A000A9F14091090150910A0160910B017091BB
:1036B0000C0123E033E080910305909104050E9402
:1036C0002815811102C080E008954091DD025091DB
:1036D000DE026091DF027091E00241155105610543
:1036E000710591F023E033E080910305909104058A
:1036F0000E942815882339F31092DD021092DE0211
:103700001092DF021092E0021092DC0281E0089534
:103710008F929F92AF92BF92EF92FF920F931F935F
:10372000CF934B015C01C42F8091090190910A0154
:10373000A0910B01B0910C0188159905AA05BB0554
:1037400001F10E944D1B811102C080E020C083E086
:10375000E82E83E0F82E00E012E020E030E0B50132
:10376000A40180910305909104050E948F13882382
:1037700061F38092090190920A01A0920B01B0922C
:103780000C018091DC02C82BC093DC0281E0CF9158
:103790001F910F91FF90EF90BF90AF909F908F90EF
:1037A00008954F925F926F927F928F929F92AF9205
:1037B000BF92CF92DF92EF92FF920F931F93CF931E
:1037C000DF93EC01423051056105710510F480E092
:1037D00078C089859A85AB85BC850196A11DB11DF0
:1037E00084179507A607B70790F3CB88DC88ED8888
:1037F000FE888F89803129F4BB27A72F962F852F2C
:1038000009C0DB01CA01E7E0B695A79597958795B2
:10381000EA95D1F7480159012A013B01C80ED91E8A
:10382000EA1EFB1E8091090190910A01A0910B01F3
:10383000B0910C01C816D906EA06FB0681F48F89FF
:103840008031A9F4B301A201552766277727440FD9
:10385000551FFA01ED5FFC4F9182808219C040E054
:10386000C701B6010E94881B8111E9CFB0CFB30117
:10387000A2014F77552766277727440F551F440F1E
:10388000551FFA01ED5FFC4F80829182A282B382C4
:103890008091DC0281608093DC028A89823080F032
:1038A0008D819E81AF81B885C80ED91EEA1EFB1E90
:1038B000C092DD02D092DE02E092DF02F092E002DE
:1038C00081E0DF91CF911F910F91FF90EF90DF90FA
:1038D000CF90BF90AF909F908F907F906F905F90B0
:1038E0004F9008958F929F92AF92BF92CF92DF92A6
:1038F000EF92FF920F931F93CF93DF93FC0181858B
:103900009285A385B4850196A11DB11D84179507E5
:10391000A607B70710F480E05BC083889488A58869
:10392000B6888789803129F4BB27A72F962F852F4A
:1039300009C0DB01CA01C7E0B695A79597958795A1
:10394000CA95D1F7E9016A017B018F01BC01CD0164
:10395000680D791D8A1D9B1D8090090190900A01B8
:10396000A0900B01B0900C01681579058A059B05A4
:1039700091F4F80187898031A1F4DD24EE24FF243D
:10398000C601880F991FFC01ED5FFC4F808191817A
:10399000A0E0B0E018C040E00E94881B8111E9CF90
:1039A000BACFE894C7F8DD24EE24FF24C601880FBF
:1039B000991F880F991FFC01ED5FFC4F8081918159
:1039C000A281B381BF7088839983AA83BB8381E07E
:1039D000DF91CF911F910F91FF90EF90DF90CF90EB
:1039E000BF90AF909F908F9008952F923F924F92EB
:1039F0005F926F927F928F929F92AF92BF92CF927F
:103A0000DF92EF92FF920F931F93CF93DF93CDB787
:103A1000DEB72B970FB6F894DEBF0FBECDBF7C018B
:103A2000FE013196CE010C966F0130E23193E8171A
:103A3000F907E1F7DA0130E087E09D91992331F150
:103A40009E3231F48A3009F46BC138E08AE0F5CF58
:103A5000EAE6F1E04491442321F031969413FACF41
:103A60005FC1831708F45CC14FED490F4E3508F074
:103A700057C141E0430FF601E30FF11D3FE9390F54
:103A80003A3108F490529083342FD7CF8981803215
:103A900009F446C1322E8B01DB015B968D919C911E
:103AA0005C97F701948F838F16961D921D921D923D
:103AB0001C921997FB011286138614861586B12C69
:103AC000F80182859385A485B585438954896589E4
:103AD000768984179507A607B70708F05BC025E02D
:103AE000B695A795979587952A95D1F7F82FFF70EA
:103AF000AF2ED80115968C91823008F411C1C801FF
:103B00000E94C21797FD0CC1F80182859385A48598
:103B1000B5854F96A11DB11D82879387A487B58770
:103B2000F0E2AF9EB00111246D5F7C4F611571050D
:103B300009F4F6C0DB018C91882319F0853EC1F4AD
:103B4000F1C0B1100EC0F701A28A809109019091D5
:103B50000A01A0910B01B0910C0186879787A08B79
:103B6000B18BDB018C91882399F0BB24B394A8CF4F
:103B70004BE050E0C6010E945C33892B09F0A0CFD6
:103B8000832D8073803309F4CBC0432D6A2DC4C0CC
:103B9000BB24B394832D8271823109F0C1C0BB2054
:103BA000C1F0F701668577858089918941E00E949F
:103BB000881B882309F4B4C0D70152968C91B0E2D7
:103BC0008B9FC00111248D5F9C4F009709F078C036
:103BD000A7C0F8018581823009F4A2C0C8010E9403
:103BE000E111882309F49CC0D8015B96ED91FC910A
:103BF0005C9716968D909D90AD90BC901997B2E011
:103C00008B1A9108A108B108058404C0880C991C7E
:103C1000AA1CBB1C0A94D2F786859785A089B18916
:103C2000880E991EAA1EBB1E2480E1E08E1A910800
:103C3000A108B108222009F124013501420C511CD0
:103C4000611C711C0E944D1B882309F469C0E3E0CC
:103C5000F3E0119225E0E330F207D9F74092090131
:103C600050920A0160920B0170920C018091DC026B
:103C700081608093DC022A94DDCFD8015B96ED91C0
:103C8000FC915C9780E092E0A0E0B0E0058404C085
:103C9000880F991FAA1FBB1F0A94D2F7F801438906
:103CA000548965897689840F951FA61FB71F838B5A
:103CB000948BA58BB68BD70152961C9283E093E030
:103CC00020E2FC0111922A95E9F72BE0F601DC01D4
:103CD00001900D922A95E1F721E238E2DC0151963C
:103CE0003C932E93509740E058E01F965C934E9380
:103CF0001E9753963C932E93529759963C932E932E
:103D0000589757965C934E9356970E944D1B882365
:103D100039F0432DF7016289C7010E94D81005C010
:103D200080E003C0B11021CF0ECF2B960FB6F894D0
:103D3000DEBF0FBECDBFDF91CF911F910F91FF90DE
:103D4000EF90DF90CF90BF90AF909F908F907F903B
:103D50006F905F904F903F902F900895FC0187A146
:103D6000882319F080E00C94B20788E0909100005D
:103D700090910000909300009091000090930000BB
:103D80008150A1F7809100008093000080E00895A9
:103D9000CF93DF93FC012581222311F080E049C0FD
:103DA000EC01809115068031C1F482E08583178A89
:103DB000108E118E128E8091160690911706A0E03B
:103DC000B0E025E0880F991FAA1FBB1F2A95D1F7E5
:103DD000838B948BA58BB68B19C08032F9F683E068
:103DE0008583409118065091190660911A067091CA
:103DF0001B06478B508F618F728F9F012D5E3F4F47
:103E00008EEF95E00E94B023882341F28EEF95E07B
:103E10009C8F8B8F81E08C831E821F82188619866F
:103E20001A861B861C861D861E861F86188A198A7E
:103E30001A8ADF91CF9108950F931F93CF93DF9349
:103E4000EC01162F8FA1882321F082E590E00E94DB
:103E5000F10760E08DA10E942F2563E0CE010E9452
:103E60008521612FCE010E94852183E290E0019798
:103E7000F1F7CE010E94AE1E082F10E0102F002790
:103E8000CE010E94AE1E082B61E08DA10E942F255D
:103E90008FA181110E94A107C801DF91CF911F91CD
:103EA0000F910895CF93DF93EC018CA187FD0DC096
:103EB00060E00E942F2564E670E080E090E00E94C0
:103EC0009A2561E08CA10E942F2561E08DA10E94BE
:103ED0002F2561E08EA10E942F2564E670E080E02E
:103EE00090E00E949A2544E058E060E0CE010E94F4
:103EF000AA2164E670E080E090E00E949A2564E6E2
:103F000070E080E090E00E949A2540E050E663E097
:103F1000CE010E94AA21F89448E258E26BE0CE015B
:103F20000E94AA217894DF91CF91089590912E0557
:103F30009111FCCF982F813208F090E281E08093BC
:103F40002E0580932D052FEF20932C0510922B0525
:103F5000290F20932A058093090580910905806D1A
:103F60008093090580910805813061F4109208055D
:103F7000809109058093BB008091BC0083FDF8CF40
:103F800085EC01C085EE8093BC0080912E058130C8
:103F9000E1F380912B05891710F490912B05EAE04D
:103FA000F5E0A3EEB2E080E0891721F021912D9396
:103FB0008F5FFACF1092E2028093E10208952F9270
:103FC0003F924F925F926F927F928F929F92AF92A9
:103FD000BF92CF92DF92EF92FF920F931F93CF93F6
:103FE000DF93CDB7DEB7C756D1090FB6F894DEBF61
:103FF0000FBECDBF4C016B01A6964FAFA69719A27D
:1040000018A283E691E09F8F8E8F1BA21C821B82D9
:104010009A8389831E825E018EE1A80EB11CC501C0
:104020000E94C81E76018E010F5F1F4F25011801E7
:104030006FE270E0C7010E947933009709F442C033
:10404000F70120812F3221F4FFEFEF1AFF0AF0CFA2
:104050008E198D3008F08CE0682E712CA301B70109
:10406000CE01885A9F4F0E94A233E8E5F0E0EC0FA2
:10407000FD1FE60DF71D1082C8010E94D511F80141
:104080008581882351F01EAE1DAE83E691E09CAF82
:104090008BAF21961FAE219721C021E0AE01485A77
:1040A0005F4FB201C8010E94F51C882361F3E60C42
:1040B000F71CC2010E94D511942D852D2801092FCE
:1040C000182FB6CFC7018C199D09A8969FAF8EAF48
:1040D000A897B201CE01CB960E943F17A896EEADED
:1040E000FFADA897CE0EDF1EF6018081811109C0B9
:1040F000BE01655C7F4FC1010E943F1743EF51E055
:1041000032C019A218A283E691E09F8F8E8F1BA266
:1041100021968FAD2197811104C0C4010E94AF1771
:1041200026C0A6962FADA697A601BE01655C7F4F5F
:10413000C5010E94F51C882381F3CE01CB960E9415
:10414000D511A6968FADA6978670863039F449A909
:104150005AA96BA97CA9C5010E944110B501C101F2
:104160000E943F17A601B101C4010E947B23C40134
:10417000C959DF4F0FB6F894DEBF0FBECDBFDF9138
:10418000CF911F910F91FF90EF90DF90CF90BF9054
:10419000AF909F908F907F906F905F904F903F90E7
:1041A0002F9008951F93CF93DF93CDB7DEB7CB54F5
:1041B000D1090FB6F894DEBF0FBECDBF0E945B23BE
:1041C000811102C00E944E2340E063EF71E0CE01F6
:1041D0004C960E94DF1FCE014C960E94682310E08F
:1041E000BE01645E7F4FCE0101960E941924CE016C
:1041F00001960E949017882309F473C0CE010D9692
:104200000E94A70E892B09F461C0BE01635F7F4F36
:10421000CE01805C9F4F0E944D1A28961FAE1EAEA5
:1042200028972A961FAE1EAE2A972C961FAE1EAE5A
:104230002C974AE0BE01695C7F4F812F90E00E947D
:104240006830BE01695C7F4FCE018A5B9F4F0E9440
:10425000171ABE016A5B7F4FCE01C7960E94331AC0
:1042600041E050E06DE572E0CE01C7960E94B619BC
:10427000882309F445C026964EAD5FAD2697229659
:104280006EAD7FAD2297CE01C7960E94B6198111FF
:1042900004C0CE01C7960E94E4194BAD5CAD6FA976
:1042A00078AD83E595E00E940F180E940123CE01AE
:1042B000C7960E942E1ACE018A5B9F4F0E942E1A2B
:1042C000CE01805C9F4F0E942E1A1F5FCE01019687
:1042D0000E949D1764E670E080E090E00E949A25BD
:1042E0007FCFCE014C960E949D17C55BDF4F0FB666
:1042F000F894DEBF0FBECDBFDF91CF911F9108951F
:10430000CE01C7960E94E419B6CF0F931F93CF93A7
:10431000DF93CDB7DEB70DB71EB72DB73EB720522E
:1043200031090FB6F8943EBF0FBE2DBFEDB7FEB7F3
:10433000B096E07E608341E050E0BF010E94B90783
:104340000FB6F8941EBF0FBE0DBFDF91CF911F9126
:104350000F910895FF920F931F93CF93DF93EC017A
:10436000F62E142F052F8FA1882321F082E590E0EF
:104370000E94F10760E08DA10E942F2562E0CE012E
:104380000E9485216F2DCE010E948521602FCE01D4
:104390000E948521612FCE010E94852161E08DA1BF
:1043A0000E942F258FA1882339F0DF91CF911F9193
:1043B0000F91FF900C94A107DF91CF911F910F9166
:1043C000FF900895FC0124813581FB0144815581D2
:1043D0002417350721F5FC0180819181FB01608163
:1043E0007181009719F061157105A1F461157105CE
:1043F00049F0232BB1F0FB01808190E091958195EC
:1044000091090AC0009769F0232B59F0FC018081C3
:1044100090E002C00E94843321E0892B19F020E053
:1044200001C021E0822F0895282F309152053132AA
:1044300008F04AC080912E058111FCCF9091510562
:1044400042E040932E0520932D052FEF20932C055D
:1044500010922B0530932A05E1E3F5E0AAE0B5E0E0
:1044600020E0321721F041914D932F5FFACF109247
:10447000090520910905990F922B909309059091B8
:104480000805913061F41092080590910905909308
:10449000BB009091BC0093FDF8CF95EC01C095EE68
:1044A0009093BC0090912E059230E1F390912C05F1
:1044B0009F3F79F080912C05803241F080912C054E
:1044C000803331F084E005C081E003C082E001C0A8
:1044D00083E0109230051092520510922F05089536
:1044E0000F931F93CF938C0181E080932F0588E673
:1044F00080935105109230051092520560E08BE3D5
:1045000096E00E94A106F8012581CAE0822F6C2F57
:104510000E942E31682F660F860F880F682F620F5A
:104520008BE396E00E94A106F8012481822F6C2F74
:104530000E942E31682F660F860F880F682F620F3A
:104540008BE396E00E94A106F8012381822F6C2F55
:104550000E942E31682F660F860F880F682F620F1A
:104560008BE396E00E94A10660E08BE396E00E9458
:10457000A106F8012281822F6C2F0E942E31682F14
:10458000660F860F880F682F620F8BE396E00E94FC
:10459000A106F8012181822F6C2F0E942E31682FF5
:1045A000660F860F880F682F620F8BE396E00E94DC
:1045B000A106F8012081822F6C2F0E942E31682FD6
:1045C000660F860F880F682F620F8BE396E00E94BC
:1045D000A10681E0CF911F910F910C9414220097B6
:1045E00069F0FC0101900020E9F73197AF01481B09
:1045F000590BBC0183E595E00C940F1880E090E026
:1046000008958FE592E00C94EF220F931F93CF93C0
:10461000DF938C01C0E0D0E0F801EC0FFD1F649146
:10462000662341F083E595E00E94A218892B11F0E2
:104630002196F2CFCE01DF91CF911F910F91089576
:10464000CF93DF930E940523EC010E9401238C0F7E
:104650009D1FDF91CF9108950F931F93CF93DF9309
:10466000FC01C481D581209719F4FB01108211C08F
:10467000415051094C175D0708F4EA018B01FC0118
:1046800060817181AE01C8010E94A233C00FD11FA9
:104690001882DF91CF911F910F91089548E058E45F
:1046A00060E083E596E00E94AA21109296068BE7CF
:1046B00096E00C949D1780919606811107C08BE7B8
:1046C00096E00E94901791E08927089580E0089570
:1046D000DC015996ED91FC915A97309759F08581FC
:1046E000823040F016821782108611861286138659
:1046F000148615860895EF92FF920F931F93CF9320
:10470000DF93EC017B018A011B821A8288EE93E021
:10471000A0E0B0E08C839D83AE83BF838FE391E004
:10472000998388838DE190E00E9468319A8F898F08
:10473000009779F02DE1F701DC0101900D922A95A7
:10474000E1F74CE050E0B801CE010C960E94A23394
:10475000188EDF91CF911F910F91FF90EF900895E8
:104760004F925F926F927F92AF92BF92CF92DF9201
:10477000EF92FF920F931F93CF93DF9300D000D05F
:10478000CDB7DEB78C0149835A836B837C83590193
:10479000C12CD12C7601412C82E0582E612C712C39
:1047A00049815A816B817C819E012F5F3F4FC801F7
:1047B0000E94721C882351F1D301C201F8010584C3
:1047C00004C0880F991FAA1FBB1F0A94D2F7C80EF6
:1047D000D91EEA1EFB1E49815A816B817C81878923
:1047E000803129F088EF9FEFAFEFBFE004C088EF82
:1047F0009FEFA0E0B0E0481759076A077B0780F2F7
:10480000F501C082D182E282F38281E00F900F90A5
:104810000F900F90DF91CF911F910F91FF90EF902C
:10482000DF90CF90BF90AF907F906F905F904F9050
:104830000895CF92DF92EF92FF920F931F93CF9341
:10484000DF93CDB7DEB7C756D1090FB6F894DEBFF8
:104850000FBECDBF8C016B01FB01E18CF28CF70127
:104860008581823008F470C082859385A485B585E2
:104870008F719927AA27BB27892B8A2B8B2B09F0AD
:1048800063C040E250E0BE016F5F7F4FC7010E94EE
:104890002314803209F058C08981882309F454C058
:1048A000853E79F38E3269F38C8583FDEACF2296BB
:1048B0001FAE1EAE229783E691E09FAF8EAF249687
:1048C0001FAE2497FE01319680E090E03EE22191F8
:1048D000203291F0983041F4ABE5B0E0AC0FBD1F51
:1048E000A80FB11D3C938F5FABE5B0E0AC0FBD1FCF
:1048F000A80FB11D2C938F5F9F5F9B3041F7EBE5B5
:10490000F0E0EC0FFD1FE80FF11D1082F601618D44
:10491000728D21E0AE01455A5F4FCE01CE960E94C6
:10492000F51C882389F0BE01625C7F4FCE01819621
:104930000E943F17AE01455A5F4FBE016F5D7F4F2A
:10494000C8010E947B2303C0C8010E94AF17C801A1
:10495000C959DF4F0FB6F894DEBF0FBECDBFDF9150
:10496000CF911F910F91FF90EF90DF90CF9008951E
:10497000833081F028F4813099F08230A1F00895DD
:104980008730A9F08830B9F08430D1F4809180006C
:104990008F7D03C0809180008F7780938000089581
:1049A00084B58F7702C084B58F7D84BD08958091D2
:1049B000B0008F7703C08091B0008F7D8093B000EE
:1049C00008953FB7F89480919D0690919E06A0911E
:1049D0009F06B091A00626B5A89B05C02F3F19F0F1
:1049E0000196A11DB11D3FBFBA2FA92F982F88276F
:1049F000820F911DA11DB11DBC01CD0142E0660FCA
:104A0000771F881F991F4A95D1F70895CF93DF9399
:104A1000282F30E0F901E054FE4F8491F901E4556C
:104A2000FE4FD491F901E856FE4FC491CC2391F08A
:104A300081110E94B824EC2FF0E0EE0FFF1FE25727
:104A4000FE4FA591B491EC91ED2381E090E021F42B
:104A500080E002C080E090E0DF91CF9108951F9345
:104A6000CF93DF93282F30E0F901E054FE4F84917B
:104A7000F901E455FE4FD491F901E856FE4FC49177
:104A8000CC23C1F0162F81110E94B824EC2FF0E046
:104A9000EE0FFF1FEC57FE4FA591B4919FB7F8940E
:104AA000111104C08C91D095D82302C0EC91DE2B5B
:104AB000DC939FBFDF91CF911F910895CF93DF9338
:104AC00090E0FC01E455FE4F2491FC01E856FE4FB6
:104AD0008491882361F190E0880F991FFC01E658CA
:104AE000FE4FC591D491FC01EC57FE4FA591B491B6
:104AF000611109C09FB7F89488812095822388832B
:104B0000EC912E230BC0623061F49FB7F89488813A
:104B1000322F309583238883EC912E2B2C939FBFCB
:104B200006C08FB7F894E8812E2B28838FBFDF91C2
:104B3000CF9108958F929F92AF92BF92CF92DF92C2
:104B4000EF92FF926B017C010E94E1244B015C011A
:104B5000C114D104E104F104F1F00E94E124DC016C
:104B6000CB0188199909AA09BB09883E9340A10580
:104B7000B10570F321E0C21AD108E108F10888EE0E
:104B8000880E83E0981EA11CB11CC114D104E1045D
:104B9000F10419F7DDCFFF90EF90DF90CF90BF9039
:104BA000AF909F908F9008952FB7F89460919906D9
:104BB00070919A0680919B0690919C062FBF089554
:104BC0001F920F920FB60F9211242F933F938F9342
:104BD0009F93AF93BF938091990690919A06A0916D
:104BE0009B06B0919C063091980623E0230F2D3749
:104BF00020F40196A11DB11D05C026E8230F0296E1
:104C0000A11DB11D209398068093990690939A0652
:104C1000A0939B06B0939C0680919D0690919E0662
:104C2000A0919F06B091A0060196A11DB11D809391
:104C30009D0690939E06A0939F06B093A006BF91F9
:104C4000AF919F918F913F912F910F900FBE0F9039
:104C50001F901895FC01908190539A3008F090E0D5
:104C6000818180532AE0929F800D112408952F9214
:104C70003F924F925F926F927F928F929F92AF92EC
:104C8000BF92CF92DF92EF92FF920F931F93CF9339
:104C9000DF93CDB7DEB72C970FB6F894DEBF0FBE0B
:104CA000CDBF8C015A87498769837A8321E030E040
:104CB0003C832B83C12CD12C1C861B868B859C8529
:104CC000E985FA858E179F0709F444C0DB84CC84FC
:104CD00009964397C0F08B859C858D599F4F873CE3
:104CE0009105A0F08B859C8589519C4F8F3C974006
:104CF00080F08B859C85815F984D8F319E4460F05C
:104D000086E090E00BC082E090E008C083E090E095
:104D100005C084E090E002C085E090E00E94683128
:104D20007C01892B09F4ABC0CF92DF9289EB91E033
:104D30009F938F93FF92EF920E94CB330F900F902F
:104D40000F900F900F900F9097FF06C0C7010E9421
:104D5000003295C0C6019BC0E981FA812190319053
:104D6000FA83E9830115110509F449C021143104BE
:104D700021F481E6282E82E0382EF10101900020F6
:104D8000E9F731979F01221933093E832D83F701FB
:104D900001900020E9F73197CF018E199F0998877C
:104DA0008F83C801412C512CB1010E94B13300976F
:104DB00041F0ED81FE818E0F9F1FFFEF4F1A5F0ABA
:104DC000F3CFF80101900020E9F78F8198852D81BC
:104DD0003E81821B930B849D9001859D300D949D97
:104DE000300D1124CF01801B910B820F931F0E9465
:104DF00068316C01009719F04C01380103C0C12CD7
:104E0000D12C24C031E0431A5108E0F0B101C301B4
:104E10000E94B1335C01A618B708A501B301C40113
:104E20000E94A233B7018A0D9B1D0E948D338F8093
:104E30009884880E991EED81FE81AE0EBF1E6A0C0D
:104E40007B1CE0CFB301C4010E948D33C7010E94D7
:104E500000322B813C81232B19F4C8010E940032BF
:104E6000C114D10419F480E090E011C08B859C85B9
:104E700001969C878B871C821B8286011FCF2B810A
:104E80003C81232B81F7C8010E940032ECCF2C9685
:104E90000FB6F894DEBF0FBECDBFDF91CF911F914B
:104EA0000F91FF90EF90DF90CF90BF90AF909F90C9
:104EB0008F907F906F905F904F903F902F900895CC
:104EC000CF93DF93009759F0EC018881882351F04C
:104ED000082E000C990B0E9454338993F6CF81E081
:104EE00090E002C080E090E0DF91CF9108958DE4E2
:104EF00096E00C942E1ACF93DF93CDB7DEB7A6972A
:104F00000FB6F894DEBF0FBECDBF789484B5826033
:104F100084BD84B5816084BD85B5826085BD85B55D
:104F2000816085BD80916E00816080936E001092DB
:104F30008100809181008260809381008091810056
:104F400081608093810080918000816080938000E7
:104F50008091B10084608093B1008091B000816045
:104F60008093B00080917A00846080937A00809171
:104F70007A00826080937A0080917A0081608093C9
:104F80007A0080917A00806880937A001092C10044
:104F9000E0916305F091640582E08083E0915F0514
:104FA000F09160051082E0916105F091620580E169
:104FB000808310926B05E0916705F091680586E0AB
:104FC0008083E0916505F091660580818061808332
:104FD000E0916505F0916605808188608083E091AD
:104FE0006505F0916605808180688083E0916505A4
:104FF000F091660580818F7D808380E591E00E943D
:1050000020236DE270E08DE496E00E948F191092EB
:10501000E2021092E10210923005109252051092B5
:105020002E0511E010932D051092080561E082E134
:105030000E942F2561E083E10E942F258091B90015
:105040008E7F8093B9008091B9008D7F8093B900E5
:1050500088E48093B80085E48093BC0086E496E001
:105060009093AB028093AA0287E496E09093A90202
:105070008093A80210932F0588E680935105109223
:1050800030051092520560E08BE396E00E94A10685
:1050900081E00E94142281E090E00E94961F8BE341
:1050A00096E00E94580687FF67C085EF91E00E9456
:1050B000EF220E9401234BE050E064E471E0CE0156
:1050C00001960E944A30CE010A960E942A268F8FAE
:1050D000E9818E2FEE0F990BAA0BBB0BFC01E1545B
:1050E000F109E331F10540F5EC5CFF4F0C946231BE
:1050F0008A81813639F08B818E3611F087E01BC0B2
:1051000086E019C081E017C082E015C08B8182372C
:1051100011F088E010C084E00EC08B81823711F05E
:1051200085E009C083E007C089E005C08AE003C0CC
:105130008BE001C08CE088A3CE0105960E942A2650
:1051400089A348E050E06BE371E0CE0101960E9434
:105150004A30CE0101960E942A268AA3CE010496E7
:105160000E942A268BA3CE0107960E942A268CA392
:10517000CE014F960E94702261E0809197060E94B6
:105180005E2561E0809197060E942F258091770629
:1051900087FD08C061E00E945E2560E0809177068F
:1051A0000E942F2561E0809178060E945E2561E0D3
:1051B000809178060E942F2561E0809179060E94F7
:1051C0005E2561E0809179060E942F2560E0809144
:1051D00073060E945E2580917A06811110C061E0FD
:1051E000809174060E945E2561E0809176060E949F
:1051F0005E2560E0809175060E945E2502C00E94D7
:10520000AA0883E596E00E94521F61E083E596E0DC
:105210000E941C1F64E0969587956A95E1F7182F08
:105220001F70143009F0FFCF83E596E00E94521FF3
:1052300060E083E596E00E941C1FAC01406260E0E4
:1052400083E596E00E94AA21809173060E940625BC
:10525000892BD1F380917A06882321F080E591E0B3
:105260000E94F10760E0809179060E942F2563E596
:1052700083E596E00E9485216FEE83E596E00E942B
:1052800085216EE683E596E00E94852164E483E54E
:1052900096E00E94852160E083E596E00E948521EA
:1052A00060E083E596E00E94852160E083E596E07A
:1052B0000E94852160E083E596E00E94852161E0FF
:1052C000809179060E942F2580917A0681110E9493
:1052D000A10764EF71E080E090E00E949A25809140
:1052E0007A06882321F080E591E00E94F10760E0D2
:1052F000809179060E942F2565E483E596E00E945F
:10530000852168E783E596E00E94852169E683E5CB
:1053100096E00E94852164E783E596E00E9485215E
:1053200060E083E596E00E94852160E083E596E0F9
:105330000E94852160E083E596E00E94852160E07F
:1053400083E596E00E94852161E0809179060E94C4
:105350002F2580917A0681110E94A1078091210654
:10536000882321F08CE196E00E94D5111092FD0572
:105370001092FB051092F8051092F70589E08093D2
:10538000F6050E94D4257B0161E08091F6050E941C
:105390005E2561E08091F6050E942F250E94AA08F3
:1053A00082E58093F0051092F1058091F0059091CF
:1053B000F1050E94F1070AE08FEF0E94B207015049
:1053C000D9F70E94A10782EF95E00E94E41220E045
:1053D00030E0A90160E082EF95E00E944013082FC1
:1053E0008093FC05813049F00E94D4256E197F0915
:1053F000613D774060F381E053C02AEA31E040E04C
:1054000050E068E082EF95E00E94401382FF03C005
:105410000093FD050DC00E9408138093FC051150F8
:10542000D1F78A3A11F082E03BC082E08093FD051B
:105430008091FD05823021F0812C912C540105C012
:10544000812C912CA12C50E4B52E20E030E0A90154
:1054500067E382EF95E00E944013A501940169E2A1
:1054600082EF95E00E9440138093FC05882349F069
:105470000E94D4256E197F09613D774030F388E0A2
:105480000FC08091FD05823001F520E030E0A901D8
:105490006AE382EF95E00E944013882341F086E0A2
:1054A0008093F70582EF95E00E94FA1228C00E94CF
:1054B0000813807C803C19F483E08093FD050E94F2
:1054C00008130E9408130E94081382EF95E00E94BF
:1054D000FA1280E58093F0051092F10581E00E94B8
:1054E0001D2D882339F08CE196E00E94C81E8111A1
:1054F00007C005C080E00E941D2D8111F4CFFFCFB1
:105500000E94D220F89444E154E16BE083E596E0F8
:105510000E94AA21789483E596E09093AF0280934D
:10552000AE0280917306823019F0833059F564C25F
:1055300080E02FB7F894813009F460C291E0309197
:10554000AC02932B9093AC029091AD02911103C0E9
:1055500091E09093AD022FBFE82F082E000CFF0BB7
:10556000EE0FFF1FE050FF4F2CE738E03183208320
:10557000813009F445C2809169008C7F81608093FD
:105580006900E89ACE0101960E94E00886E0FE01DB
:105590003196A7E4B6E001900D928A95E1F739E0E3
:1055A000832E32E0932E0E94D4250091D7021091D1
:1055B000D8022091D9023091DA026B017C01C01A25
:1055C000D10AE20AF30A48EEC41643E0D406E10425
:1055D000F10408F4CCC16093D7027093D802809391
:1055E000D9029093DA0280919606CE0101960E942C
:1055F000E00886E0FE013196A7E4B6E001900D9246
:105600008A95E1F780910801882309F4D8C18EEFCB
:105610009FEF9093050180930401C12CD12C7C2C29
:10562000BE016F5F7F4F8C2D0E94390B1EA21DA201
:10563000A1EBB2E0EAE11D92EA95E9F718A21F8E0C
:10564000AE01415E5F4F60E2CE0101960E94960B73
:105650007C018F8D98A1069719F09EA28DA2EDC0B6
:105660008E010B5D1F4F2CE330E040E050E061EB1A
:1056700072E0D7018D919C910E94A10D8DA19EA1F8
:10568000892B09F0DAC02CE330E040E050E069EB10
:1056900072E0F701828193810E94A10D8DA19EA1EC
:1056A000892B09F0CAC028E130E040E050E061EC0D
:1056B00072E0D70114968D919C9115970E94A10DCF
:1056C0008DA19EA1892B09F0B8C0F7018285938531
:1056D0000E94602747E050E06DE271E0D7011A9622
:1056E0008D919C911B970E9437265C01FC010190D3
:1056F0000020E9F7CF0102978A159B0531F4F501E7
:1057000080818F3311F42AE220838E010B5D1F4FBD
:1057100028E030E040E050E064EC72E0C5010E9417
:10572000A10DC5010E9400328DA19EA1892B09F017
:1057300084C067E070E084EC92E00E94680D8823EA
:1057400059F060E070E084EC92E00E94850D809159
:10575000C4028F778093C402D7011696ED91FC9115
:105760001797DF010D900020E9F7CD0102978E1702
:105770009F0729F480818F3311F4BAE2B0838E0140
:105780000B5D1F4F20E230E041E050E065EC72E03D
:10579000CF010E94A10D8DA19EA1892B09F04DC0C2
:1057A000F70100851185C8010E946027892B09F047
:1057B00044C04DE050E063E171E0C8010E9437262B
:1057C0005C010097D1F18E010B5D1F4F2DE030E0A1
:1057D00041E050E069EC72E00E94A10DC5010E9419
:1057E000003201E010E0B80189EC92E00E94680DFF
:1057F0008823F1F0B8016150710989EC92E00E94B0
:10580000850DF80123E0F595E7952A95E1F7E75333
:10581000FD4FC8018770992721E030E002C0220FB8
:10582000331F8A95E2F7C90180959081892380838F
:105830000F5F1F4F0D301105B1F66F8D78A1C701B5
:105840000E94650B8DA19EA1892B09F06FC000916C
:105850004906F090480690914706A92EB12C10E019
:10586000EEE5F1E081E0302E412E8F1530F42491E9
:10587000020F111D8F5F3196F8CF32E03F1520F4F3
:10588000937011F40F5F1F4F20904A06E0904B0673
:1058900060914C0670E081EB92E00E94680D582EFA
:1058A0006E2D70E089EB92E00E94680D682E622DEB
:1058B00070E081EC92E00E94680DE82E632D742D5B
:1058C00085EC92E00E94680D482E6F2D70E089EC07
:1058D00092E00E94680DF82EC50103969C01369552
:1058E0002795369527954DE651E0A49EC001A59ECB
:1058F000900DB49E900D11240596820F931F800F7A
:10590000911F67E070E00E943A31BC0184EC92E0A4
:105910000E94680D552051F0662041F0EE2031F0D4
:10592000442021F0FF2011F0811172C05FEFC51AF1
:10593000D50A87E1C816D10409F071CE809104011F
:10594000909105012091060130910701821793077C
:1059500071F08E3FAFEF9A0751F09093070180935B
:1059600006011092D6020E94CE0E1092CB028091B8
:105970000801882321F180919606811120C0E091D1
:10598000D602F0E0EE0FFF1FE453FD4F10811F3FE2
:1059900069F081810E94B40F812F90E00E94D50EA2
:1059A0008091D6028F5F8093D60209C081E08093F8
:1059B000CB028FEF9FEF90930701809306018091B8
:1059C000B0028823B1F06DE476E0CE0101960E942A
:1059D000331ACE0101960E941601CE0101960E9453
:1059E0002E1A61E672E08DE496E00E94171A10927A
:1059F000B0020E941119D7CD81E09BCD92E09FCDDE
:105A000080916900837F846080936900E99ABACDB0
:105A1000D0920501C09204016CEC72E0872D0E94C7
:105A2000100B8091CB02882309F488CF8FEF9FEF72
:105A3000909307018093060181CF8F929F92AF923E
:105A4000BF92CF92DF92EF92FF92CF93DF93C82F56
:105A500082EF95E09093040580930305CC2369F1D0
:105A6000C53010F080E00CC140E060E070E0CB0198
:105A70000E94881B8823B1F320E1C29FC00111243A
:105A80008D509D4FFC01E254FE4F20812F7751F73E
:105A90003C96408151816281738144365105610594
:105AA000710500F33497C080D180E280F380C11487
:105AB000D104E104F10421F4D5CFC12CD12C76011D
:105AC00040E0C701B6010E94881B882359F28091EB
:105AD0000E0390910F038115924021F6A0911303BC
